{
  "abi": [
    {
      "anonymous": false,
      "inputs": [
        {
          "indexed": false,
          "internalType": "address",
          "name": "_address",
          "type": "address"
        },
        {
          "indexed": false,
          "internalType": "uint256",
          "name": "amount",
          "type": "uint256"
        }
      ],
      "name": "paymentMade",
      "type": "event"
    },
    {
      "inputs": [],
      "name": "makePayment",
      "outputs": [],
      "stateMutability": "payable",
      "type": "function"
    }
  ],
  "bytecode": {
    "object": "0x6080604052348015600f57600080fd5b5060ad8061001e6000396000f3fe608060405260043610601c5760003560e01c8063d8d79700146021575b600080fd5b60276029565b005b670de0b6b3a7640000341015603d57600080fd5b604080513381523460208201527fa019eaadc256ed6e045d4794a292dc8303bb65c30f55e714993fd8790313d11f910160405180910390a156fea2646970667358221220a536d9d8cfb84dd77596f86e0a1bf66bd4e905e1af54b3fd2c6d61ef06fe868c64736f6c63430008100033",
    "linkReferences": {}
  },
  "methodIdentifiers": {
    "makePayment()": "d8d79700"
  },
  "id": 16
}